:100000000C942C010C945D010C945D010C945D0129
:100010000C945D010C945D010C945D010C945D01E8
:100020000C945D010C945D010C945D010C945D01D8
:100030000C945D010C94A8040C945D010C945D017A
:100040000C945D010C945D010C945D010C945D01B8
:100050000C945D010C945D010C945D010C94C80539
:100060000C945D010C9492050C9468050C945D0150
:100070000C945D010C945D010C945D010C945D0188
:100080000C945D010C945D010C945D010C945D0178
:100090000C945D010C945D010C945D010C945D0168
:1000A0000C945D010C945D010C945D010C945D0158
:1000B0000C945D010C945D010C945D010C945D0148
:1000C0000C945D010C945D010C945D010C945D0138
:1000D0000C945D010C945D010C9432050C940805A0
:1000E0000C945D010C944E020C94B6020C947702B1
:1000F0000C944A020C9489020C94E7020C941206A8
:100100000C94D9020C9465020C945B020C94460288
:100110000C9481020C9429030C94650A0C947603C8
:100120000C9431020C9469020C9473020C945202E8
:100130000C946D020C9436020C9485020C947B0294
:100140000C945F020C94C5020C94550200000A0B3B
:1001500002090C0D0E080703040100000000000056
:10016000000000000000000000000000000000008F
:10017000000000000000000012111000000000004C
:10018000000000000000000000000000000000006F
:1001900000000200002200250028002B002E003164
:1001A00000340002010000050108010B01000021DC
:1001B00000240027002A002D003000330001010038
:1001C00000040107010A01050505050705080808DF
:1001D00008020202020A0A080804040404010101D8
:1001E00001010101010303030303030303040707E0
:1001F000070C0C0C0C0C0C0C0C020202020606067E
:1002000006060606060B0B0B0B0B0B0B0B01021065
:100210002020080810204010204080020102010820
:1002200004020101020408102040808040201008D0
:100230000402018004020180402010080402010829
:100240000402010102040810204080010204081089
:10025000204080001206650A11241FBECFEFD1E2B4
:10026000DEBFCDBF00E00CBF23E0ACE2B2E001C0D6
:100270001D92A83AB207E1F712E0A0E0B2E0E8E090
:10028000FAE100E00BBF02C007900D92AC32B1075B
:10029000D9F711E0CBE2D1E000E006C021970109D7
:1002A000802FFE010E94CB0ACA32D10780E00807E6
:1002B000A9F70E946C060C94F20C0C940000FC014F
:1002C000A089B18982E08C93A485B5851C92A6850E
:1002D000B7858FEC8C93108EA489B58986E08C93BA
:1002E000A289B3898C9180618C93A289B3898C9106
:1002F00088608C93A289B3898C9180688C930288E2
:10030000F389E02D80818F7D8083089590E0FC014A
:10031000E35FFD4F249189539E4FFC018491882314
:1003200099F090E0880F991FFC01E355FE4FA591CD
:10033000B491FC01ED56FE4F859194918FB7F894DE
:10034000EC91E22BEC938FBF08950895FC0124817A
:1003500035816217730720F480819181009729F419
:100360001092350285E392E00895860F971F089555
:1003700090910002891311C0E2E9F1E0E4919FEF4E
:1003800090930002E23009F44FC008F038C0EE2329
:1003900009F441C0E13009F441C0282F30E0F901EF
:1003A000E45BFE4F9491F901E35FFD4F44912953C3
:1003B0003E4FF9012491222309F467C0992309F4DF
:1003C00055C09150923108F051C0E92FF0E08827D4
:1003D000E351FE4F8F4F0C94CB0A4E025202310272
:1003E00046024A02360255025B025F02650269025A
:1003F0006D027302770236027B0281028502E430CD
:1004000051F118F1E53009F0C8CF909173009D7F4C
:1004100090937300C2CF10926E00BFCF90916F0087
:100420009D7F90936F00B9CF909170009D7F9093C6
:10043000700091E09093B0009091B100987F94602B
:100440009093B1001092B300A8CF909171009D7F5E
:1004500090937100A2CF909172009D7F9093720053
:100460009CCF809180008F7780938000E22FF0E016
:10047000EE0FFF1FED56FE4FA591B4918FB7F89484
:10048000EC9140954E234C938FBF0895809180004E
:100490008F7DEACF80918000877FE6CF84B58F770C
:1004A00084BDE4CF84B58F7DFBCF8091B0008F7782
:1004B0008093B000DBCF8091B0008F7DF9CF809129
:1004C00090008F7780939000D1CF809190008F7DA6
:1004D000F9CF80919000877FF5CF8091A0008F7732
:1004E0008093A000C3CF8091A0008F7DF9CF809131
:1004F000A000877FF5CF809120018F778093200126
:10050000B5CF809120018F7DF9CF80912001877F29
:10051000F5CFAF92BF92CF92DF92EF92FF920F93FF
:100520001F93CF93DF936C017B018B01040F151F89
:10053000EB015E01AE18BF08C017D10759F06991F1
:10054000D601ED91FC910190F081E02DC601199545
:10055000892B79F7C501DF91CF911F910F91FF9002
:10056000EF90DF90CF90BF90AF900895FC01538D36
:10057000448D252F30E0842F90E0821B930B54177D
:1005800010F0CF96089501970895FC01918D828D0A
:10059000981761F0A28DAE0FBF2FB11D5D968C91A3
:1005A000928D9F5F9F73928F90E008958FEF9FEFE2
:1005B0000895FC01918D828D981731F0828DE80F9E
:1005C000F11D858D90E008958FEF9FEF0895FC0158
:1005D000918D228D892F90E0805C9F4F821B910925
:1005E0008F73992708958EE592E00E94E70221E03B
:1005F000892B09F420E0822F08958BEF92E00E946E
:10060000E70221E0892B09F420E0822F0895FC0104
:10061000A48DA80FB92FB11DA35ABF4F2C91848D63
:1006200090E001968F739927848FA689B7892C93C0
:10063000A089B1898C91837080648C93938D848D13
:10064000981306C00288F389E02D80818F7D808316
:100650000895EF92FF920F931F93CF93DF93EC01D6
:1006600081E0888F9B8D8C8D98131AC0E889F98959
:10067000808185FF15C09FB7F894EE89FF8960835C
:10068000E889F98980818370806480839FBF81E0DD
:1006900090E0DF91CF911F910F91FF90EF9008951F
:1006A000F62E0B8D10E00F5F1F4F0F731127E02EFA
:1006B0008C8D8E110CC00FB607FCFACFE889F98932
:1006C000808185FFF5CFCE010E940703F1CFEB8D2E
:1006D000EC0FFD2FF11DE35AFF4FF0829FB7F89406
:1006E0000B8FEA89FB8980818062CFCFCF93DF9324
:1006F000EC01888D8823B9F0AA89BB89E889F9893A
:100700008C9185FD03C0808186FD0DC00FB607FC6E
:10071000F7CF8C9185FFF2CF808185FFEDCFCE01A1
:100720000E940703E9CFDF91CF91089580E090E028
:10073000892B29F00E94FD0281110E94000080E0B7
:1007400090E0892B49F080E090E0892B29F00E940D
:10075000000081110E94000080E090E0892B49F0A8
:1007600080E090E0892B29F00E94000081110E9416
:10077000000080E090E0892B29F00E94F3028111B3
:100780000C94000008952FB7F89460913102709195
:10079000320280913302909134022FBF08950F935B
:1007A0001F930E94C3036093660270936702809355
:1007B0006802909369028EE592E00E94C50297FF5D
:1007C0001DC00E94C3030091660210916702209130
:1007D000680230916902601B710B820B930B0091D0
:1007E00062021091630220916402309165026017E9
:1007F000710782079307F8F28FEF9FEF1F910F9118
:1008000008958F929F92AF92BF920F931F93CF93B1
:10081000DF93CDB7DEB7A1970FB6F894DEBF0FBE5A
:10082000CDBF19A2423008F44AE08E010F5D1F4F80
:10083000842E912CB12CA12CA50194010E94A90A0F
:10084000E62FB901CA01EA3044F5E05DD801EE9324
:100850008D01232B242B252B79F790E080E0109736
:1008600069F0FD0101900020E9F73197AF014A1BC3
:100870005B0BBD018BEF92E00E948902A1960FB63F
:10088000F894DEBF0FBECDBFDF91CF911F910F91C6
:10089000BF90AF909F908F900895E95CD7CFFC01F7
:1008A00080819181009711F00C946F0B08950F9344
:1008B0001F93CF93DF93EC0188819981009759F0C2
:1008C0002A813B812617370730F081E0DF91CF91F5
:1008D0001F910F9108958B016F5F7F4F0E94F80B5E
:1008E000009759F0998388831B830A832C813D816B
:1008F000232B59F7FC011082E8CF80E0E7CFCF939C
:10090000DF93EC01198218821B821A821D821C82DD
:1009100070E060E00E9457042881398181110FC086
:100920002115310519F0C9010E946F0B1982188237
:100930001D821C821B821A82DF91CF9108951D8235
:100940001C8261E272E0C901DF91CF910C94EB0C43
:100950001F920F920FB60F9211240BB60F922F9386
:100960003F934F935F936F937F938F939F93AF9337
:10097000BF93EF93FF9380914A0290914B02A09115
:100980004C02B0914D02892B8A2B8B2BE1F1909177
:100990003902E0913A02F0913B02808189278083FD
:1009A00080914A0290914B02A0914C02B0914D026D
:1009B000181619061A061B069CF480914A0290919B
:1009C0004B02A0914C02B0914D020197A109B109CF
:1009D00080934A0290934B02A0934C02B0934D0235
:1009E000FF91EF91BF91AF919F918F917F916F9107
:1009F0005F914F913F912F910F900BBE0F900FBEC3
:100A00000F901F901895809100020E94B801E8CFC6
:100A10001F920F920FB60F9211240BB60F922F93C5
:100A20003F934F935F936F937F938F939F93AF9376
:100A3000BF93EF93FF938EE592E00E940703FF912F
:100A4000EF91BF91AF919F918F917F916F915F9146
:100A50004F913F912F910F900BBE0F900FBE0F90B3
:100A60001F9018951F920F920FB60F9211240BB67C
:100A70000F922F938F939F93EF93FF93E0916E02CA
:100A8000F0916F028081E0917402F091750282FD15
:100A90001DC09081809177028F5F8F7320917802C3
:100AA000821741F0E0917702F0E0E25AFD4F958F16
:100AB00080937702FF91EF919F918F912F910F90EB
:100AC0000BBE0F900FBE0F901F9018958081F2CF34
:100AD0001F920F920FB60F9211240BB60F922F9305
:100AE0003F934F935F936F937F938F939F93AF93B6
:100AF000BF93EF93FF938BEF92E00E940703FF9168
:100B0000EF91BF91AF919F918F917F916F915F9185
:100B10004F913F912F910F900BBE0F900FBE0F90F2
:100B20001F9018951F920F920FB60F9211240BB6BB
:100B30000F922F938F939F93EF93FF93E0910B036B
:100B4000F0910C038081E0911103F091120382FD7A
:100B50001DC09081809114038F5F8F7320911503C6
:100B6000821741F0E0911403F0E0E550FD4F958FBE
:100B700080931403FF91EF919F918F912F910F908C
:100B80000BBE0F900FBE0F901F9018958081F2CF73
:100B90001F920F920FB60F9211242F933F938F93B2
:100BA0009F93AF93BF938091310290913202A091B5
:100BB0003302B09134023091300223E0230F2D37FD
:100BC00058F50196A11DB11D20933002809331028A
:100BD00090933202A0933302B093340280912C029E
:100BE00090912D02A0912E02B0912F020196A11D8D
:100BF000B11D80932C0290932D02A0932E02B093EE
:100C00002F02BF91AF919F918F913F912F910F90A4
:100C10000FBE0F901F90189526E8230F0296A11D76
:100C2000B11DD2CFEEE5F2E01382128248EE53E01E
:100C300060E070E044835583668377838BE092E0C5
:100C40009183808325E331E03587248724E331E0F5
:100C50003787268720E331E0318B208B21E331E099
:100C6000338B228B22E331E0358B248B26E331E07A
:100C7000378B268B118E128E138E148EEBEFF2E0D3
:100C800013821282448355836683778391838083A2
:100C900085EC90E09587848784EC90E09787868741
:100CA00080EC90E0918B808B81EC90E0938B828B39
:100CB00082EC90E0958B848B86EC90E0978B868B12
:100CC000118E128E138E148E8EE993E00E947F0493
:100CD00088E993E00C947F04CF93DF9300D000D099
:100CE0001F921F92CDB7DEB7789484B5826084BD21
:100CF00084B5816084BD85B5826085BD85B5816020
:100D000085BD80916E00816080936E00109281009D
:100D10008091810082608093810080918100816058
:100D20008093810080918000816080938000809119
:100D3000B10084608093B1008091B00081608093A5
:100D4000B000809191008260809391008091910029
:100D500081608093910080919000816080939000E9
:100D60008091A10082608093A1008091A1008160A8
:100D70008093A1008091A00081608093A000809169
:100D80002101826080932101809121018160809303
:100D900021018091200181608093200180917A005F
:100DA000846080937A0080917A00826080937A00D8
:100DB00080917A00816080937A0080917A008068C7
:100DC00080937A001092C1008BEF92E00E945F0145
:100DD0008EE592E00E945F0188E10E9486018824EE
:100DE0008A94982C540172E9272E71E0372EEFED8A
:100DF0004E2EE1E05E2EF5E26F2EF2E07F2E8EE5C4
:100E000092E00E94E702181619060CF02FC11A8210
:100E100019821C821B821E821D8270E060E0CE015E
:100E200001960E94570429813A8181112BC0211516
:100E3000310519F0C9010E946F0B1A8219821E82B6
:100E40001D821C821B820E94CF0397FD23C08F83CB
:100E500018860D811E810F5F1F4FB801CE010196CC
:100E60000E945704882379F329813A818D819E81DC
:100E7000BE01695F7F4F820F931F0E94EB0C1E83A0
:100E80000D83E1CF1E821D8261E272E0C9010E94E2
:100E9000EB0CD9CF80919E0390919F03009709F4AA
:100EA00096C069817A816115710509F48EC04091FF
:100EB000A0035091A1032D813E814217530708F4EE
:100EC00084C00E94EB0C8D819E819093A30380933C
:100ED000A2031E821D82CE0101960E944F0470E083
:100EE00060E08EE993E00E94A601FC0180818435D8
:100EF00009F0FBC04091A2035091A30360919E03AF
:100F000070919F038BEF92E00E94890265E070E090
:100F10008EE993E00E94A601FC0110828091A20359
:100F20009091A303892B09F4A1C069E172E080913B
:100F30009E0390919F030E94E20C8C01892B09F083
:100F400095C065E070E08EE993E00E94A60120E282
:100F5000FC012083680186E0C80ED11CB6018EE931
:100F600093E00E94A601FC0180818A3009F446C00A
:100F7000B6018EE993E00E94A601FC01808189837D
:100F80001A82C0909C03D0909D03FFEFCF1ADF0A16
:100F9000B60188E993E00E945704882399F02091D4
:100FA00098033091990380919C0390919D03BE0119
:100FB0006F5F7F4F820F931F0E94EB0CD0929D03B7
:100FC000C0929C030F5F1F4FC5CF0E946F0B89819A
:100FD0009A8190939F0380939E038B819C81909331
:100FE000A1038093A0038D819E819093A30380939E
:100FF000A2031A8219821C821B826BCFB80188E976
:1010000093E00E94A601FC011082809198039091C8
:101010009903C12CD12C7601009721F00E946D0A12
:101020006B017C01C0925A02D0925B02E0925C029A
:10103000F0925D024AE0C701B601F7FE0DC06DE215
:101040008BEF92E00E94290366277727CB016C196A
:101050007D098E099F094AE00E94010442E050E0A8
:101060006FE172E08BEF92E00E948902C0905A0219
:10107000D0905B02E0905C02F0905D02C114D1045C
:10108000E104F10409F4FFC10E94C3036C157D055E
:101090008E059F0509F0F7C180910002883109F0A3
:1010A00088C0F101149117FDE0C188E10E9486011A
:1010B000112309F44EC1123009F05FC18091B100D3
:1010C000887F83608093B10089EF8093B300809222
:1010D0004A0290924B02A0924C02B0924D02809133
:1010E0007000826080937000C0C170E060E08EE9A3
:1010F00093E00E94A601FC018081833409F0B6CF01
:101100004091A2035091A30360919E0370919F03AD
:101110008BEF92E00E94890268E070E08EE993E034
:101120000E94A601FC0110828091A2039091A3036A
:10113000892B09F49BCF62E272E080919E0390912B
:101140009F030E94E20C892B09F090CF68E070E0C9
:101150008EE993E00E94A60120E2FC01208369E071
:1011600070E08EE993E00E94A601FC01808180334B
:1011700019F488E10E94B80169E070E08EE993E01B
:101180000E94A601FC018081813309F06FCF88E1C4
:101190000E94B8010E94C30368577C4E8F4F9F4F37
:1011A00060935A0270935B0280935C0290935D029D
:1011B0005DCF8F3F09F059C188E180930002F101B2
:1011C0001491812F1F3F09F450C1123009F465C0FA
:1011D00058F4112371F1113009F442C087FD45C163
:1011E00088E10E94860167CF143009F495C008F4A5
:1011F00075C0153099F7109220011092210180914D
:101200002101886080932101809121018160809378
:101210002101F2018491E82FF0E0EE0FFF1FED565F
:10122000FE4F85919491F30184918093360215E0ED
:101230003CCF14BC15BC84B5826084BD85B581608B
:1012400085BDF2018491E82FF0E0EE0FFF1FED560F
:10125000FE4F85919491F301849180933D0225CFB7
:1012600010928000109281008091810088608093AC
:10127000810080918100816080938100F2018491DE
:10128000E82FF0E0EE0FFF1FED56FE4F8591949191
:10129000F301849180933C0208CF1092B000109229
:1012A000B1008091B00082608093B0008091B10065
:1012B00081608093B100F2018491E82FF0E0EE0F9D
:1012C000FF1FED56FE4F8591949190933B028093C2
:1012D0003A02F301849180933902E7CE1092900094
:1012E000109291008091910088608093910080918C
:1012F0009100816080939100F2018491E82FF0E0E9
:10130000EE0FFF1FED56FE4F85919491F3018491EE
:101310008093380213E0C9CE1092A0001092A10071
:101320008091A10088608093A1008091A1008160DC
:101330008093A100F2018491E82FF0E0EE0FFF1FEF
:10134000ED56FE4F85919491F3018491809337027D
:10135000ACCE85B5887F836085BD8CE787BD8092E4
:10136000520290925302A0925402B0925502809180
:101370006E00826080936E0078C01130D1F480914D
:101380008100887F8160809381008FE39FE190934B
:1013900089008093880080924E0290924F02A09222
:1013A0005002B092510280916F00826080936F0072
:1013B0005CC01330D1F480919100887F816080936C
:1013C0009100EFE3FFE1F0939900E09398008092A1
:1013D000460290924702A0924802B0924902809140
:1013E000710082608093710040C01430D1F480910C
:1013F000A100887F81608093A1008FE39FE190939B
:10140000A9008093A8008092420290924302A09289
:101410004402B09245028091720082608093720013
:1014200024C01530D1F480912101887F81608093A0
:101430002101EFE3FFE1F0932901E093280180927D
:101440003E0290923F02A0924002B09241028091EF
:10145000730082608093730008C01230A1F144F5DC
:10146000112379F1113009F490CF0E94C303605E1B
:10147000714B8F4F9F4F609356027093570280932A
:101480005802909359020E94C30300915602109192
:101490005702209158023091590260177107820754
:1014A000930718F088E10E94B8010E949603A7CC28
:1014B000143009F4A2CF0CF484CF153009F4B9CF5D
:1014C000D4CF8FE34BCF8FE300CE88E993E00E9427
:1014D0004F048EE993E00C944F041F93FC0199276D
:1014E0008827BC01E89411911032E9F3193010F00B
:1014F0001E30C8F31B3251F01D3249F4689406C007
:101500000E94940A610F711D811D911D119110534C
:101510001A30B0F33EF490958095709561957F4FA9
:101520008F4F9F4F1F910895592F482F372F262FE8
:10153000660F771F881F991F660F771F881F991FD7
:10154000620F731F841F951F660F771F881F991FD7
:101550000895A1E21A2EAA1BBB1BFD010DC0AA1FF4
:10156000BB1FEE1FFF1FA217B307E407F50720F00C
:10157000A21BB30BE40BF50B661F771F881F991F87
:101580001A9469F760957095809590959B01AC01D0
:10159000BD01CF010895EE0FFF1F881F8BBF07907D
:1015A000F691E02D19940F931F93CF93DF93823020
:1015B000910510F482E090E0E091A603F091A7037A
:1015C00030E020E0B0E0A0E0309799F4211531053B
:1015D00009F44AC0281B390B24303105D8F58A811B
:1015E0009B816115710589F1FB0193838283FE0163
:1015F00011C0408151810281138148175907E0F0E1
:101600004817590799F4109761F012960C931297A6
:1016100013961C933296CF01DF91CF911F910F91BA
:1016200008950093A6031093A703F4CF2115310565
:1016300051F04217530738F0A901DB019A01BD01AF
:10164000DF01F801C1CFEF01F9CF9093A703809399
:10165000A603CDCFFE01E20FF31F81939193225099
:10166000310939832883D7CF2091A4033091A50372
:10167000232B41F420910302309104023093A503FF
:101680002093A4032091010230910202211531051B
:1016900041F42DB73EB74091050250910602241B3C
:1016A000350BE091A403F091A503E217F307A0F432
:1016B0002E1B3F0B2817390778F0AC014E5F5F4FA8
:1016C0002417350748F04E0F5F1F5093A503409332
:1016D000A403819391939FCFF0E0E0E09CCFCF9360
:1016E000DF930097E9F0FC01329713821282A091F8
:1016F000A603B091A703ED0130E020E01097A1F41C
:1017000020813181820F931F2091A4033091A50382
:101710002817390709F061C0F093A503E093A403EB
:10172000DF91CF910895EA01CE17DF07E8F54A81EE
:101730005B819E0141155105B1F7E901FB83EA8305
:1017400049915991C40FD51FEC17FD0761F48081B1
:1017500091810296840F951FE90199838883828184
:1017600093819B838A83F0E0E0E012968D919C91B7
:1017700013970097B9F52D913C911197CD010296E1
:10178000820F931F2091A4033091A50328173907D6
:1017900039F6309751F51092A7031092A603B09333
:1017A000A503A093A403BCCFD383C28340815181FE
:1017B000840F951FC817D90761F44E5F5F4F88816A
:1017C0009981480F591F518340838A819B8193835C
:1017D00082832115310509F0B0CFF093A703E09380
:1017E000A6039ECFFD01DC01C0CF13821282D7CFAA
:1017F0004F925F926F927F928F929F92AF92BF9221
:10180000CF92DF92EF92FF920F931F93CF93DF93CC
:101810008C01009799F4CB01DF91CF911F910F912B
:10182000FF90EF90DF90CF90BF90AF909F908F9000
:101830007F906F905F904F900C94D30AFC01E60F5D
:10184000F71F9C0122503109E217F30708F4AEC0DC
:10185000D901CD91DC911197C617D70720F1C5307A
:10186000D10578F0CE0104978617970750F0C61B74
:10187000D70B2297C193D1936D937C93CF010E9494
:101880006F0BC801DF91CF911F910F91FF90EF90E7
:10189000DF90CF90BF90AF909F908F907F906F9090
:1018A0005F904F9008955B01AC1ABD0A4C018C0EFD
:1018B0009D1EA091A603B091A703512C412CF12CA1
:1018C000E12C109731F58091A4039091A503881520
:1018D000990509F05CC04616570608F058C080917B
:1018E000010290910202009741F48DB79EB740919A
:1018F000050250910602841B950BE817F90708F0C2
:1019000055C0F093A503E093A403F90171836083AC
:10191000B8CF8D919C91119712966C901297139657
:101920007C901397A815B90559F56C0142E0C40ED7
:10193000D11CCA14DB0420F1AC014A195B09DA019D
:101940001296159780F06282738251834083D90189
:101950006D937C93E114F10471F0D7011396FC931D
:10196000EE9312978ECF22968C0F9D1FF9019183D3
:101970008083F301EFCFF093A703E093A60381CF19
:101980004816590608F42C017D01D3019ACFCB01EA
:101990000E94D30A7C01009749F0AE01B8010E9471
:1019A000D90CC8010E946F0B87016BCF10E000E0DB
:1019B00068CFFB01DC0102C001900D924150504004
:1019C000D8F70895FB01DC018D9101908019011079
:1019D000D9F3990B0895FB01DC0101900D920020D1
:1019E000E1F7089511E0CBE2D1E000E006C0802FDE
:1019F000FE010E94CB0A2196011DCC32D10780E066
:081A00000807A9F7F894FFCFD5
:101A0800FF0000A80380000000000029038902B637
:101A1800027603E702C502D90254696D653A000DE2
:0C1A28000A00436F6D6D616E643A0000AF
:00000001FF
