:100000000C943E010C946F010C946F010C946F01E1
:100010000C946F010C946F010C946F010C946F01A0
:100020000C946F010C946F010C946F010C946F0190
:100030000C946F010C946F010C946F010C946F0180
:100040000C946F010C946F010C946F010C946F0170
:100050000C946F010C946F010C946F010C94EF05DC
:100060000C946F010C94B9050C948F050C946F01DE
:100070000C946F010C946F010C946F010C946F0140
:100080000C946F010C946F010C946F010C946F0130
:100090000C946F010C946F010C946F010C946F0120
:1000A0000C946F010C946F010C946F010C946F0110
:1000B0000C946F010C946F010C946F010C946F0100
:1000C0000C946F010C946F010C946F010C946F01F0
:1000D0000C946F010C946F010C9459050C942F052E
:1000E0000C946F010C945C030C9457030C94310333
:1000F0000C94BF030C943B030C9461030C944903D0
:100100000C94BC010C9422030C9441030C94450301
:100110000C948E030C945D030C941C030C9422022B
:100120000C9437030C9464020C94B1020C942E03CB
:100130000C9426030C9439060C9453030C9400027F
:100140000C944F030C9488090C942A030C94140209
:100150000C94FF030C94F1010000210024002700FF
:100160002A002D00300033000101000004010701C6
:100170000A0100002200250028002B002E0031007B
:10018000340002010000050108010B0100002000FD
:100190002300260029002C002F003200000100005F
:1001A00003010601090105050505070508080808FA
:1001B000020202020A0A08080404040401010101FF
:1001C00001010101030303030303030304070707FA
:1001D0000C0C0C0C0C0C0C0C02020202060606069F
:1001E000060606060B0B0B0B0B0B0B0B010210206C
:1001F000200808102040102040800201020108045D
:1002000002010102040810204080804020100804F0
:100210000201800402018040201008040201080449
:10022000020101020408102040800102040810208D
:10023000408000000A0B02090C0D0E0807030401A0
:1002400000000000000000000000000000000000AE
:10025000000000000000000000000000000012117B
:10026000100000000000000000000000000000007E
:1002700000000000000000003906880911241FBE9C
:10028000CFEFD1E2DEBFCDBF00E00CBF24E0AAE497
:10029000B2E001C01D92A630B207E1F712E0A0E083
:1002A000B2E0E8E7F7E100E00BBF02C007900D9273
:1002B000AA34B107D9F711E0CDE3D1E000E006C0E0
:1002C00021970109802FFE010E948C09CC33D107B0
:1002D00080E00807A9F70E9415070C94AA0B0C945C
:1002E0000000FC01A089B18982E08C93A485B585CA
:1002F0001C92A685B7858FEC8C93108EA489B58946
:1003000086E08C93A289B3898C9180618C93A289B9
:10031000B3898C9188608C93A289B3898C91806811
:100320008C930288F389E02D80818F7D80830895EE
:1003300096E0899FD0011124A357BC4F90967C93DF
:100340006E935F9791E091969C939197E091FA0359
:10035000F091FB039091F903992339F0309751F014
:10036000811108C08091A9031994309719F05C9607
:100370008C91FACF08950895AF92BF92CF92DF92F9
:10038000EF92FF920F931F93CF93DF936C017B014A
:100390008B01040F151FEB015E01AE18BF08C017DB
:1003A000D10759F06991D601ED91FC910190F0814E
:1003B000E02DC6011995892B79F7C501DF91CF9101
:1003C0001F910F91FF90EF90DF90CF90BF90AF9073
:1003D000089542E050E065E372E083E592E00C941A
:1003E000BC01FC01538D448D252F30E0842F90E01B
:1003F000821B930B541710F0CF9608950197089520
:10040000FC01918D828D981761F0A28DAE0FBF2FE8
:10041000B11D5D968C91928D9F5F9F73928F90E03E
:1004200008958FEF9FEF0895FC01918D828D9817AD
:1004300031F0828DE80FF11D858D90E008958FEFEA
:100440009FEF0895FC01918D228D892F90E0805CB3
:100450009F4F821B91098F739927089583E592E03E
:100460000E94220221E0892B09F420E0822F0895C6
:1004700080EF92E00E94220221E0892B09F420E023
:10048000822F0895FC01A48DA80FB92FB11DA35A86
:10049000BF4F2C91848D90E001968F739927848FA4
:1004A000A689B7892C93A089B1898C9183708064C7
:1004B0008C93938D848D981306C00288F389E02D68
:1004C00080818F7D80830895EF92FF920F931F9319
:1004D000CF93DF93EC0181E0888F9B8D8C8D9813F7
:1004E0001AC0E889F989808185FF15C09FB7F89403
:1004F000EE89FF896083E889F9898081837080644F
:1005000080839FBF81E090E0DF91CF911F910F9199
:10051000FF90EF900895F62E0B8D10E00F5F1F4FA8
:100520000F731127E02E8C8D8E110CC00FB607FCB7
:10053000FACFE889F989808185FFF5CFCE010E9445
:100540004202F1CFEB8DEC0FFD2FF11DE35AFF4F6F
:10055000F0829FB7F8940B8FEA89FB8980818062D3
:10056000CFCFCF93DF93EC01888D8823B9F0AA8990
:10057000BB89E889F9898C9185FD03C0808186FD5E
:100580000DC00FB607FCF7CF8C9185FFF2CF8081AD
:1005900085FFEDCFCE010E944202E9CFDF91CF91DE
:1005A000089580E090E0892B29F00E9438028111A3
:1005B0000E94000080E090E0892B49F080E090E00C
:1005C000892B29F00E94000081110E94000080E028
:1005D00090E0892B49F080E090E0892B29F00E947F
:1005E000000081110E94000080E090E0892B29F03A
:1005F0000E942E0281110C940000089581508231D6
:1006000008F05AC0E82FF0E08827E65FFC4F8F4FD4
:100610000C948C092A032E031C03220326035C037B
:10062000310337033B034103450349034F0353039E
:100630005C0357035D036103809180008F77809393
:1006400080000895809180008F7DF9CF8091800097
:10065000877FF5CF84B58F7784BD089584B58F7D6E
:10066000FBCF8091B0008F778093B0000895809188
:10067000B0008F7DF9CF809190008F7780939000AC
:100680000895809190008F7DF9CF80919000877FB1
:10069000F5CF8091A0008F778093A000089580917E
:1006A000A0008F7DF9CF8091A000877FF5CF80914A
:1006B00020018F77809320010895809120018F7D04
:1006C000F9CF80912001877FF5CFCF93DF93282F3B
:1006D00030E0F901EE5CFD4F8491F901E451FE4FE9
:1006E000D491F901EA55FE4FC491CC23A1F08111B8
:1006F0000E94FE02EC2FF0E0EE0FFF1FE457FE4FCA
:10070000A591B491EC91ED2381E090E009F480E0B3
:10071000DF91CF91089580E090E0FACF862F0C947E
:1007200065031F93CF93DF93282F30E0F901EE5C30
:10073000FD4F8491F901E451FE4FD491F901EA553E
:10074000FE4FC491CC23A9F0162F81110E94FE0206
:10075000EC2FF0E0EE0FFF1FEE58FE4FA591B49185
:100760008FB7F894EC91111108C0D095DE23DC937B
:100770008FBFDF91CF911F910895DE2BF8CF862F89
:10078000642F0C949103CF93DF9390E0FC01E4512C
:10079000FE4F24918A559E4FFC0184918823C9F015
:1007A00090E0880F991FFC01E85AFE4FA591B49183
:1007B000FC01EE58FE4FC591D49161110DC09FB759
:1007C000F8948C91209582238C9388812823288308
:1007D0009FBFDF91CF910895623051F49FB7F89495
:1007E0003C91822F809583238C93E8812E2BEFCF31
:1007F0008FB7F894EC912E2B2C938FBFEACF862FD6
:10080000642F0C94C3032FB7F89460914F0270913A
:10081000500280915102909152022FBF08950F9380
:100820001F93CF93DF93C82FD62F86E0C89FF00188
:100830001124E357FC4F11A2878D90A181309105BF
:10084000F1F058F082309105F1F1039709F440C0BE
:10085000DF91CF911F910F9108956623C9F361E055
:1008600070E08C2F0E9498010E9403046093E503BE
:100870007093E6038093E7039093E803E9CF0E9427
:1008800003040091E5031091E6032091E703309102
:10089000E803AB01BC01401B510B620B730B809151
:1008A000F7039091F803B0E0A0E084179507A6073E
:1008B000B70748F462E070E08C2FDF91CF911F9171
:1008C0000F910C94980163E070E0D111C1CFF4CF87
:1008D00070E060E0F1CF0F931F930E9403046093D8
:1008E000F8027093F9028093FA029093FB0280EF72
:1008F00092E00E94000297FF1DC00E940304009135
:10090000F8021091F9022091FA023091FB02601B6B
:10091000710B820B930B0091F4021091F502209160
:10092000F6023091F7026017710782079307F8F219
:100930008FEF9FEF1F910F910895FC0180819181AE
:10094000009711F00C94300A08950F931F93CF93E2
:10095000DF93EC0188819981009759F02A813B81CE
:100960002617370730F081E0DF91CF911F910F916B
:1009700008958B016F5F7F4F0E94B90A009759F06D
:10098000998388831B830A832C813D81232B59F70C
:10099000FC011082E8CF80E0E7CFEF92FF920F9347
:1009A0001F93CF93DF93EC017B01FB0101900020AB
:1009B000E9F731978F01061B170BB8010E94A504B8
:1009C00028813981811113C02115310519F0C90120
:1009D0000E94300A198218821D821C821B821A8290
:1009E000DF91CF911F910F91FF90EF9008951D839C
:1009F0000C83B701C901DF91CF911F910F91FF9037
:100A0000EF900C94A30BEF92FF920F931F93CF9351
:100A1000DF936115710541F480E0DF91CF911F9163
:100A20000F91FF90EF90089541155105B1F07B01B2
:100A3000EC010C811D81040F151FB8010E94A50453
:100A4000882351F3288139818C819D81B701820FE0
:100A5000931F0E94A30B1D830C8381E0DECF1F92A6
:100A60000F920FB60F9211240BB60F922F933F9354
:100A70004F935F936F937F938F939F93AF93BF93A6
:100A8000EF93FF9383E592E00E944202FF91EF9182
:100A9000BF91AF919F918F917F916F915F914F9196
:100AA0003F912F910F900BBE0F900FBE0F901F9094
:100AB00018951F920F920FB60F9211240BB60F923A
:100AC0002F938F939F93EF93FF93E0916302F091A5
:100AD00064028081E0916902F0916A0282FD1DC08A
:100AE000908180916C028F5F8F7320916D028217CD
:100AF00041F0E0916C02F0E0ED5AFD4F958F80934C
:100B00006C02FF91EF919F918F912F910F900BBEEF
:100B10000F900FBE0F901F9018958081F2CF1F92FB
:100B20000F920FB60F9211240BB60F922F933F9393
:100B30004F935F936F937F938F939F93AF93BF93E5
:100B4000EF93FF9380EF92E00E944202FF91EF91BA
:100B5000BF91AF919F918F917F916F915F914F91D5
:100B60003F912F910F900BBE0F900FBE0F901F90D3
:100B700018951F920F920FB60F9211240BB60F9279
:100B80002F938F939F93EF93FF93E0910003F09146
:100B900001038081E0910603F091070382FD1DC0EF
:100BA0009081809109038F5F8F7320910A038217D0
:100BB00041F0E0910903F0E0E051FD4F958F809303
:100BC0000903FF91EF919F918F912F910F900BBE91
:100BD0000F900FBE0F901F9018958081F2CF1F923B
:100BE0000F920FB60F9211242F933F938F939F93E1
:100BF000AF93BF9380914F0290915002A091510208
:100C0000B091520230914E0223E0230F2D3758F558
:100C10000196A11DB11D20934E0280934F02909327
:100C20005002A0935102B093520280914A029091D7
:100C30004B02A0914C02B0914D020196A11DB11D35
:100C400080934A0290934B02A0934C02B0934D02C2
:100C5000BF91AF919F918F913F912F910F900FBEB8
:100C60000F901F90189526E8230F0296A11DB11D25
:100C7000D2CF109256021092550248EE53E060E037
:100C800070E040935702509358026093590270935A
:100C90005A028DE192E0909354028093530225E32F
:100CA00031E03093600220935F0224E331E030931F
:100CB00062022093610220E331E0309364022093CA
:100CC000630221E331E0309366022093650222E360
:100CD00031E0309368022093670226E331E03093DD
:100CE0006A022093690210926C0210926D021092B7
:100CF0006E0210926F021092F3021092F202409371
:100D0000F4025093F5026093F6027093F702909309
:100D1000F1028093F00285EC90E09093FD028093C5
:100D2000FC0284EC90E09093FF028093FE0280EC42
:100D300090E0909301038093000381EC90E0909306
:100D400003038093020382EC90E090930503809369
:100D5000040386EC90E090930703809306031092BF
:100D6000090310920A0310920B0310920C031092C5
:100D7000FD031092FC031092FF031092FE031092E9
:100D800001041092000467E372E08CEF93E00E948C
:100D9000CD0410928F03109293031092920310923D
:100DA00094038FE292E090938E0380938D03E9EA9F
:100DB000F3E01082148213821582369683E0E53EBA
:100DC000F807B9F783E092E09093F0038093EF0384
:100DD00080E092E09093F2038093F10384E08093AB
:100DE000F30383E08093F40387E092E09093EE03B3
:100DF0008093ED038AE090E09093F6038093F503EF
:100E000084EF91E09093F8038093F7031092FB0333
:100E10001092FA031092E9031092EA031092EB0386
:100E20001092EC031092F9030895CF93DF9300D052
:100E300000D01F921F92CDB7DEB7789484B5826040
:100E400084BD84B5816084BD85B5826085BD85B56E
:100E5000816085BD80916E00816080936E001092EC
:100E60008100809181008260809381008091810067
:100E700081608093810080918000816080938000F8
:100E80008091B10084608093B1008091B000816056
:100E90008093B00080919100826080939100809156
:100EA0009100816080939100809190008160809397
:100EB00090008091A10082608093A1008091A100A8
:100EC00081608093A1008091A00081608093A00048
:100ED00080912101826080932101809121018160B4
:100EE0008093210180912001816080932001809175
:100EF0007A00846080937A0080917A008260809387
:100F00007A0080917A00816080937A0080917A00E3
:100F1000806880937A001092C10080EF92E00E9476
:100F2000710183E592E00E947101412C512C320144
:100F30004394AA24AA94BA2C80EF92E00E94220241
:100F4000181619060CF075C01A8219821C821B82B1
:100F50001E821D8267E372E0CE0101960E94CD04DD
:100F60000E946B0497FD0CC08F83188641E050E00F
:100F7000BE01695F7F4FCE0101960E940305F0CF4D
:100F80008091FC039091FD03009709F484C069816E
:100F90007A816115710509F47CC04091FE0350917E
:100FA000FF032D813E814217530708F472C00E944F
:100FB000A30B8D819E8190930104809300041E8277
:100FC0001D82CE0101960E949D041A8219821C8204
:100FD0001B821E821D8268E372E0CE0101960E9490
:100FE000CD0440910004509101046091FC03709184
:100FF000FD03CE0101960E94030581110CC0898179
:101000009A81009711F00E94300A1A8219821E827A
:101010001D821C821B824D815E8169817A8183E5FC
:1010200092E00E94BC010E94E901CE0101960E945B
:101030009D0451E05093F9030E9403040091E903D9
:101040001091EA032091EB033091EC03AB01BC015A
:10105000401B510B620B730B8091F5039091F603CB
:10106000B0E0A0E084179507A607B70708F025C1F0
:1010700010E08091F303181728F5E091EF03F09149
:10108000F003E10FF11D62E080810E94C3031F5F46
:10109000F0CF0E94300A89819A819093FD0380935A
:1010A000FC038B819C819093FF038093FE038D81D1
:1010B0009E8190930104809300041A8219821C82FD
:1010C0001B827DCF312C8091F403381608F061C06B
:1010D000E32CF12CE091F103F091F203EE0DFF1DF2
:1010E00061E080810E94C303E091F103F091F2037B
:1010F000EE0DFF1D60E080810E949103D301C201CB
:10110000032C04C0880F991FAA1FBB1F0A94D2F793
:101110004C016C01C094D094212C8091F3032816CB
:1011200008F5022D10E0E091EF03F091F003E00FDD
:10113000F11F80810E9465030C5F1F4F000F111F7C
:10114000F801E357FC4F892B41F480819181882974
:101150009929918380832394E0CF808191818C2190
:101160009D21F7CFE091F103F091F203EE0DFF1D09
:1011700061E080810E9491038091F1039091F203DC
:10118000E80EF91E60E0F70180810E94C3033394EA
:101190009ACF0DE813E07801F701878D90A1892B94
:1011A00021F4148EB68EA58E11A2F6E0EF0EF11C7E
:1011B00089EC93E08E159F0579F7912C8091F303CC
:1011C000981608F053C0812CC92CD12CCC0CDD1CF6
:1011D000F601EB56FC4F6F012091F403821608F0E4
:1011E00043C0F60160817181082C02C07695679535
:1011F0000A94E2F7929E90011124280D311DEDE82A
:10120000F3E080E0458D568D2417350709F47EC044
:101210008F5F36968A30B1F760FF24C0EDE8F3E0C7
:1012200090E080E0448D411118C0E091ED03F09111
:10123000EE03E20FF31F408156E0589FF001599FE3
:10124000F00D1124E357FC4F448F368F258F10A2E9
:10125000178E61E00E940F0405C0019636968A3011
:10126000910501F78394B8CF9394A8CFD12CF801BE
:1012700081A18111D82E0A5F1F4F0E151F05B9F7E6
:101280000E9403046093E9037093EA038093EB03E5
:101290009093EC03DD2089F08091AE03882369F000
:1012A0008091AC039091AD03019739F41091A9039B
:1012B000111106C00E94D1023FCE1092F903FACF5D
:1012C0001A8219821C821B821E821D826FE372E0C9
:1012D000CE0101960E94CD041F83188641E050E0A4
:1012E000BE01695F7F4FCE0101960E9403054D81CB
:1012F0005E8169817A8183E592E00E94BC010E944F
:10130000E901CE0101960E949D04D4CF6170A2CF65
:101310008CEF93E00C949D04EE0FFF1F881F8BBF92
:101320000790F691E02D19940F931F93CF93DF93BD
:101330008230910510F482E090E0E0910404F09195
:10134000050430E020E0B0E0A0E0309799F42115EA
:10135000310509F44AC0281B390B24303105D8F572
:101360008A819B816115710589F1FB0193838283D9
:10137000FE0111C040815181028113814817590734
:10138000E0F04817590799F4109761F012960C9302
:10139000129713961C933296CF01DF91CF911F9134
:1013A0000F9108950093040410930504F4CF2115C0
:1013B000310551F04217530738F0A901DB019A01BA
:1013C000BD01DF01F801C1CFEF01F9CF9093050412
:1013D00080930404CDCFFE01E20FF31F819391931C
:1013E0002250310939832883D7CF209102043091CC
:1013F0000304232B41F420911502309116023093FF
:101400000304209302042091130230911402211549
:10141000310541F42DB73EB74091170250911802A3
:10142000241B350BE0910204F0910304E217F3074B
:10143000A0F42E1B3F0B2817390778F0AC014E5F44
:101440005F4F2417350748F04E0F5F1F509303047A
:1014500040930204819391939FCFF0E0E0E09CCF12
:10146000CF93DF930097E9F0FC0132971382128249
:10147000A0910404B0910504ED0130E020E0109744
:10148000A1F420813181820F931F209102043091B9
:1014900003042817390709F061C0F0930304E093AF
:1014A0000204DF91CF910895EA01CE17DF07E8F536
:1014B0004A815B819E0141155105B1F7E901FB832A
:1014C000EA8349915991C40FD51FEC17FD0761F4C8
:1014D000808191810296840F951FE9019983888309
:1014E000828193819B838A83F0E0E0E012968D9164
:1014F0009C9113970097B9F52D913C911197CD01CF
:101500000296820F931F2091020430910304281742
:10151000390739F6309751F51092050410920404FA
:10152000B0930304A0930204BCCFD383C283408151
:101530005181840F951FC817D90761F44E5F5F4F23
:1015400088819981480F591F518340838A819B81EB
:10155000938382832115310509F0B0CFF093050400
:10156000E09304049ECFFD01DC01C0CF1382128200
:10157000D7CF4F925F926F927F928F929F92AF924E
:10158000BF92CF92DF92EF92FF920F931F93CF9370
:10159000DF938C01009799F4CB01DF91CF911F91DC
:1015A0000F91FF90EF90DF90CF90BF90AF909F9002
:1015B0008F907F906F905F904F900C949409FC01F6
:1015C000E60FF71F9C0122503109E217F30708F4D8
:1015D000AEC0D901CD91DC911197C617D70720F184
:1015E000C530D10578F0CE0104978617970750F0E3
:1015F000C61BD70B2297C193D1936D937C93CF01D8
:101600000E94300AC801DF91CF911F910F91FF9086
:10161000EF90DF90CF90BF90AF909F908F907F9092
:101620006F905F904F9008955B01AC1ABD0A4C011A
:101630008C0E9D1EA0910404B0910504512C412CE8
:10164000F12CE12C109731F5809102049091030464
:101650008815990509F05CC04616570608F058C071
:101660008091130290911402009741F48DB79EB7B8
:101670004091170250911802841B950BE817F90747
:1016800008F055C0F0930304E0930204F90171835C
:101690006083B8CF8D919C91119712966C901297A0
:1016A00013967C901397A815B90559F56C0142E083
:1016B000C40ED11CCA14DB0420F1AC014A195B0929
:1016C000DA011296159780F062827382518340830B
:1016D000D9016D937C93E114F10471F0D701139655
:1016E000FC93EE9312978ECF22968C0F9D1FF901DB
:1016F00091838083F301EFCFF0930504E09304041A
:1017000081CF4816590608F42C017D01D3019ACFE8
:10171000CB010E9494097C01009749F0AE01B80109
:101720000E949A0BC8010E94300A87016BCF10E01B
:1017300000E068CFFB01DC0102C001900D92415036
:101740005040D8F70895FB01DC0101900D92002074
:10175000E1F7089511E0CDE3D1E000E006C0802F6D
:10176000FE010E948C092196011DCE33D10780E035
:081770000807A9F7F894FFCF68
:101778001A1B1C16171819313233343536373839D5
:101788002A3023000006048000000000006402BC28
:1017980001F101B10222020002140200000000FF60
:1017A80003BF038E030D0A0054696D653A20004398
:0A17B8006F6D6D616E643A20000051
:00000001FF
